:020000040800F2
:1000000000040020A10100089110000891100008D0
:10001000911000089110000891100008911000083C
:1000200091100008911000089110000811030008B9
:10003000911000089110000891100008911000081C
:10004000911000089110000891100008911000080C
:1000500091100008911000089110000891100008FC
:10006000911000089110000891100008510B000831
:10007000110B0008D10A0008910A0008510A000873
:1000800021180008E11700089110000891100008DD
:1000900091100008911000089110000891100008BC
:1000A000911000085115000891100008F115000882
:1000B0000116000891100008E1140008911A0008C8
:1000C000F119000891100008911000089110000823
:1000D00091100008611800089110000891100008A4
:1000E000911000089110000891100008911000086C
:1000F000911000089110000891100008911000085C
:10010000911000089110000891100008911000084B
:10011000911000089110000891100008911000083B
:10012000A11700086117000821170008E116000850
:10013000A116000891100008911000089110000805
:10014000911000089110000891100008911000080B
:1001500091100008911000089110000891100008FB
:10016000911000089110000891100008511100082A
:1001700091100008911000089110000891100008DB
:1001800091100008911000089110000891100008CB
:1001900091100008911000089110000891100008BB
:1001A00072B6344880F3098840F20000CCF20000B7
:1001B0004EF63471CEF200010860BFF34F8FBFF3EB
:1001C0006F8F40F20000C0F2F0004EF68851CEF280
:1001D00000010860BFF34F8FBFF36F8F4FF0000037
:1001E000E1EE100A4EF63C71CEF2000108600620E6
:1001F00080F31488BFF36F8F00F09AFF01F050FD79
:100200004FF055301C491D4A91423CBF41F8040B48
:10021000FAE71B49174A91423CBF41F8040BFAE741
:100220001849194A194B9A423EBF51F8040B42F83B
:10023000040BF8E700201649164A91423CBF41F8EA
:10024000040BFAE700F02CFF00F06AFF124C134D8C
:10025000AC4203DA54F8041B8847F9E701F010FFB9
:100260000F4C104DAC4203DA54F8041B8847F9E7F1
:1002700000F04EBF00080020000000200004002015
:1002800000040020D82D00080008002004080020E9
:100290000808002088130020A0010008A001000821
:1002A000A0010008A00100080000000000000000FC
:1002B0002DE9F04F2DED108AC1F80CD0C3689D4692
:1002C000BDEC108ABDE8F08F002383F31188284627
:1002D000A047002000F0B4FE00F0A2FC00DFFEE723
:1002E00090F87630426880F87E300649126843F014
:1002F000800310B50446CB640AB101219047032363
:10030000237010BD005C00400000000000000000F1
:10031000064A536823F001035360EFF309836833FF
:1003200083F30988002383F31188704730EF00E0DE
:1003300010B4202383F31188094C0A4B22681968F2
:10034000C31D23F00703891A8B429DBF9B182360AE
:1003500010460020002383F311885DF8044B70479A
:10036000D40A0020D00A0020000000000000000095
:1003700010B4202383F31188037F072B0ED8DFE806
:1003800003F0270D0D2308040D08026A936801335A
:10039000936090E80C001A60026853604FF0FF34DD
:1003A000002281680D4B046202771B689A688A42BA
:1003B000FBD25A684260036000211060586081F3EC
:1003C00011885DF8044B7047036A00221A60E5E764
:1003D000002383F311885DF8044B704778110020E7
:1003E000FEE700BF00000000000000000000000069
:1003F00090F86420062A0CD838B50123934013F0F6
:10040000670F044612D113F0080503D1DB062FD481
:1004100038BD7047C3689B695B68002BF8D1036FD8
:1004200003B19847002384F8643038BD1A49426804
:100430000B68126823F4F04323F0400383F01003A9
:1004400043F4004343F080030B600B6823F49043B4
:1004500023F0700383F4805343F4004343F080039C
:100460000B600AB106219047062384F8643038BD3A
:10047000052380F86430202383F31188C368028940
:100480005B6942F0010202819D601D605D6002F0C7
:1004900037FB85F3118838BD005C00400000000088
:1004A00038B590F864300446062B26D8DFE803F010
:1004B00004263604044C0400314942680B68126873
:1004C00023F4F04323F0400383F0100343F400438C
:1004D00043F080030B600B6823F4904323F0700318
:1004E00083F4805343F4004343F080030B600AB16C
:1004F00006219047062384F8643038BD90F87B10BD
:1005000090F87A30C26E43EA0123934206D9C36859
:100510001D8AB2FBF5F305FB1325E5B1032384F82F
:100520006430202383F31188E36862899B69002586
:1005300042F00102628120469D601D605D6002F014
:1005400017FB85F3118838BD036F03B1984700236B
:1005500084F8643038BD202383F31188C36802898E
:100560005B6942F0010202819D601D605D6002F0E6
:10057000C7FA85F31188022384F8643038BD00BFC0
:10058000005C0040000000000000000000000000CF
:10059000B24B1B6D03F1804303F5C04303EB011124
:1005A00070B58B6803F1005303F5405304460022F5
:1005B0005B0080F8642003F1100004F1740253F82A
:1005C000041B22F8021B8342F9D163689B6853B372
:1005D0002046984738B3E36E94F8740094F87B1083
:1005E00094F87A2042EA01229A423CBFE26613461E
:1005F000020600F1AF80002B61D1052384F864303E
:10060000202383F31188E36822895B69002542F087
:100610000102228120469D601D605D6002F070FA3B
:1006200085F3118870BD94F8740010F060050246DF
:1006300022D08A4962680B68126823F4F04323F0E1
:10064000400383F0100343F4004343F080030B6046
:100650000B6823F4904323F0700383F4805343F436
:10066000004343F080030B6012B1062120469047FF
:10067000062384F8643070BD94F8751000F07F0391
:1006800043EA0123B3F5407F00F065812ED9B3F52D
:10069000C06F00F0478175D9B3F5106F00F09780F7
:1006A00040F60242934200F03681B3F5006FC0D1AC
:1006B00004F17F0201232567A266E3668EE7042327
:1006C00084F86430202383F31188E36862899B698E
:1006D000A66EE16E42F0010200256281204683E8A9
:1006E000620002F045FA85F3118870BD022B00F01C
:1006F000F98040F2EE80B3F5807F7ED0B3F5817F44
:1007000097D194F87630002B93D194F8781011F0AB
:100710000F031AD09B0003F1804303F5B84311F097
:10072000800F196840F0318101F44051B1F5405F0C
:100730000BD01A6822F4F04222F0400242F4204228
:1007400042F080021A6094F874200023A366E366E6
:10075000236723E02BB3012384F86430202383F341
:100760001188E36822895B69A66EE16E42F001029E
:1007700000252281204683E8620002F0C1F985F35A
:10078000118870BD40F202318B4245D0B3F5A06FA5
:100790007FF44FAF324BA566E566236713067FF5FE
:1007A0002CAF032384F86430202383F31188E3689B
:1007B00062899B69002542F00102628120469D60AA
:1007C0001D605D6002F0D4F985F3118870BD94F866
:1007D000763094F87F109942B7D02278042A41D01D
:1007E000002B37D0626884F87F30136804222270AF
:1007F00083B30221204698472CE094F87630012BF1
:100800007FF417AFB4F87C30A56623F00203E566E9
:100810002567A4F87C30C1E794F87630002B7FF48C
:1008200008AF94F8781011F00F038ED09B0003F1FD
:10083000804303F5B84309061A6800F1BA8022F430
:10084000904222F0700282F4805242F4004242F060
:1008500080021A6094F8742077E700BF005C0040C3
:10086000E1020008202383F311882289638902F0C2
:10087000010203F001032281638104F1280204F1E3
:100880000C0343F8045F9342FBD14023C4F8843047
:10089000012148F280008B0003F1804303F5B84347
:1008A00001311A6842F4004242F0800208291A60BD
:1008B0001860F0D1002383F31188626884F87F30D8
:1008C0001368032121700BB12046984794F87630C5
:1008D00086E7EBB9022204F17C012367A166E26698
:1008E00013467BE694F87820394912F0800F02F025
:1008F0000F0251F822203DD112F440523FF499AE3C
:10090000B2F5805F3CD1334AE3662567A26665E6AF
:10091000012B7FF48EAE304BA36600220223E366E8
:1009200022675BE694F87900616894F878304E6845
:1009300094F8762094F8771043EA00232046B047D5
:1009400000283FF476AE42680368E366A266256736
:1009500094F8740042E694F87630012B7FF469AE87
:10096000B4F87C30A56643F00203E5662567A4F879
:100970007C3013E712F030023FF45BAE102AC2D095
:10098000164AE3662567A26628E601F030013029A1
:100990003FF4DBAE1A6822F4F04222F0400282F00B
:1009A000200242F4004242F080021A6094F874205F
:1009B000CBE622F4F04222F0400282F0100242F430
:1009C000004242F080021A6094F87420BDE600BF35
:1009D000005C0040502C0008B02B0008C02B000821
:1009E000202383F31188124B5B6813F4006302D158
:1009F00083F311887047F1EE103AEFF309830D4A43
:100A00004FF08071D26843F8082C43F84C1CA3F1D6
:100A1000680282F30988084A1168926989689268B5
:100A200091428CBF054A064A43F8502C704700BFDC
:100A300000ED00E030EF00E078110020D90200085E
:100A4000DC020008000000000000000000000000C0
:100A50000B4B0C4A19681268090C01F00E01114287
:100A60000BD00948026A10B50C045C600AB1406AF8
:100A70009047BDE81040FFF7B3BFFFF7B1BF00BF1D
:100A800000000240580002409810002000000000C2
:100A90000B4B0C4A19681268090B01F00E01114248
:100AA0000BD00948826910B50C035C600AB1C069BB
:100AB0009047BDE81040FFF793BFFFF791BF00BF1D
:100AC0000000024044000240981000200000000096
:100AD0000B4B0C4A19681268090A01F00E01114209
:100AE0000BD00948026910B50C025C600AB140697C
:100AF0009047BDE81040FFF773BFFFF771BF00BF1D
:100B00000000024030000240981000200000000069
:100B10000B4B0C4A19681268090901F00E011142C9
:100B20000BD00948826810B50C015C600AB1C0683E
:100B30009047BDE81040FFF753BFFFF751BF00BF1C
:100B4000000002401C00024098100020000000003D
:100B500008B5094B094A1968126801F00E011142E3
:100B600005D0074A596013680BB150689847BDE833
:100B70000840FFF735BF00BF0000024008000240F8
:100B8000981000200000000000000000000000009D
:100B90000E4B0F495A688368F0B44F6F4168C668BE
:100BA000D0E90445D31ADB1BE4180268836045F1E1
:100BB00000058B4206F1010688BF43609342C66080
:100BC000C0E9044538BF0360F0BC7047001000E086
:100BD000781100200000000000000000000000006C
:100BE0000D4A1068036830B4012194695A600025E9
:100BF0000177A16813609061257700E01B689A680F
:100C00008A42FBD85A6862602360214614605C60A7
:100C100030BCFFF74DBB00BF781100200000000082
:100C2000FFF7DEBF00000000000000000000000031
:100C3000074B99691A6810B4087710681860012486
:100C40004360147710465DF8044B9A61FFF730BBA0
:100C500078110020000000000000000000000000EB
:100C6000F0B54B1C87B04DD0414C2546A369059388
:100C700055F81C3F01294FF0804E074698BF0221CE
:100C80003C48DEF824200490AB425BD0A06A121AE4
:100C900089189A6832D291423CBF4018CEF834008D
:100CA000914204D91B68891A9A688A42FAD35A6811
:100CB000029201AE019316605E6003919A68511A28
:100CC0004FF0FF32996062623846FFF7B1FF049B34
:100CD00083B1E369264AB3421BD0029A019B136099
:100CE000019B0021AB425A60049103D09968039A9A
:100CF0000A449A60A369186A07B0F0BD1B68891A94
:100D00009A68CDE71A4CFFF793FFA369186A07B0FA
:100D1000F0BD0199D1610023A9424D60049322D016
:100D20008868039B926A03444FF080408B60416A5D
:100D30008A1A9342DED99B1A012B98BF02230B44D7
:100D40004363D7E7A262501801AE00220223019547
:100D500002950391E6612662CEF83400CEF81020A9
:100D6000CEF80C30B0E74FF08042D360C2E700BF4E
:100D7000781100207103000800000000000000004E
:100D800069B1084B10B4024644689B69042083E8AB
:100D90001400236053605DF8044BFFF761BF4FF010
:100DA000FF307047781100200000000000000000B4
:100DB0002DE9F04F83B004460D4616460193D0F856
:100DC0001C804FF0200989F311880027BA46A368D8
:100DD00005F1010B204603B36169A3684A1C013B7E
:100DE0006261A3602B780B7023696169994224BF0B
:100DF000E3686361B8F1000F00D0C0478AF311883F
:100E0000013E07F1010712D089F31188A3685D46FE
:100E100005F1010B2046002BDED1019900932046FD
:100E2000FFF7AEFF009B0028D1D083F3118838462E
:100E300003B0BDE8F08F00BF00000000000000001C
:100E40003030FFF7B5BF00BF000000000000000019
:100E500030304FF0FF33FFF7ABBF00BF00000000A2
:100E6000F8B504460F461646202383F3118803E0A5
:100E7000FFF786FF002819DBA56831462046002DC4
:100E8000F6D06269A368511C013B6161A3601770D1
:100E9000236962699A4224BFE3686361E3690BB125
:100EA00020469847002080F31188F8BD85F311880B
:100EB000F8BD00BF000000000000000000000000BE
:100EC0003030FFF7CDBF00BF000000000000000081
:100ED00030304FF0FF32FFF7C3BF00BF000000000B
:100EE0002DE9F04F044683B0894693461D46D0F85D
:100EF0001C80202787F3118800260197B246B8F19D
:100F0000000F05D02046C04702E0FFF739FFE0B9E7
:100F1000A76829462046002FF7D0A269A368511C74
:100F2000013BA161A360137809F8013B2369A26921
:100F30009A4224BFE368A3618AF311880136B3455E
:100F400005D0019B83F31188D9E787F311883046D8
:100F500003B0BDE8F08F00BF0000000000000000FB
:100F60000C30FFF7BDBF00BF000000000000000014
:100F70000C304FF0FF33FFF7B3BF00BF000000009D
:100F800070B520230E46044683F31188C3692BB144
:100F9000984703E0FFF7F4FE002815DBA56831460B
:100FA0002046002DF6D0A169A36825694A1C013BA3
:100FB000AA42A360A26128BFE368087828BFA361A2
:100FC000002383F3118870BD85F3118870BD00BFC5
:100FD0000C30FFF7D5BF00BF00000000000000008C
:100FE0000C304FF0FF31FFF7CBBF00BF0000000017
:100FF00008B50146202383F311880820FFF730FE4F
:10100000002383F3118808BD0000000000000000E9
:1010100000228168084B10B4044602771B689A6866
:101020008A42FBD25A6862602360204614605C608A
:101030005DF8044B704700BF7811002000000000ED
:1010400038B52022034682F311880E4A9469606AFB
:10105000236204F12405854206D003686362FFF72A
:10106000D7FF606AA842F8D1637F9B0704D1636908
:1010700022691A61226953610F20BDE83840FFF7E9
:10108000D7BD00BF78110020000000000000000064
:10109000FEE700BF000000000000000000000000AC
:1010A000F0B5134F134D144C144B154907F1700E46
:1010B00000269C4211D904391A4651F8040F42F80F
:1010C000040B9442F9D8DA43144424F003040434A2
:1010D00023449D4203D943F8046B9D42FBD87745D6
:1010E00005D039697B69BC69FD691037E1E7F0BD5E
:1010F000D02B0008881300208813002088130020BC
:10110000DC2D0008000000000000000000000000CE
:10111000FEE700BF0000000000000000000000002B
:10112000704700BF00000000000000000000000049
:10113000704700BF00000000000000000000000039
:10114000024A136843F0800313607047003801407F
:101150002DE9F04FA24B5D6C6F0583B000F1448127
:101160002E0500F12181EC0408D59D4B9A6C1004EA
:1011700040F19A819A4B6FF480525A64A9050BD5BD
:10118000DFF86082D8F80430DB680BB1404698473E
:10119000934B6FF400725A642A0440F1D480DFF854
:1011A0004482DFF83CA205F00F05AC0004F1804456
:1011B00004F5B844AE1CD4F8009008EB860319F08F
:1011C000800F5F684BD0D7F814E02268DEF80C106F
:1011D0009EE8090022F4784222F0F0020B4442F427
:1011E00000422260CEF80430C31A00F0C380388A6F
:1011F000DEF80820984228BF1846CEF80C00DAF82E
:10120000503003F1804303F5C0434FEA051B0BEB5D
:10121000030C5BF8033003F1005303F540530A4419
:10122000CEF808205B00CCF8040060B1013840081B
:10123000043303EB800000E0043332F8021B43F870
:10124000041C9842F8D1236823F4F04323F04003B0
:1012500083F0300343F4004343F08003236019F428
:10126000004F6BD0236823F4784323F0F00343F05E
:10127000800319F4006F236040F08C80DAF850305E
:10128000D7F818C003F1804303F5C04303EB0513FF
:10129000DCF808B09A68DB68019302F1005EC3F3E2
:1012A00009090EF5405EB9F1010F4FEA4E0E79D9EA
:1012B0000BF102024946704650F8043B02F8023C2A
:1012C00002391B0A012902F8013C02F10202F3D89B
:1012D000A9F102035B08019A013302F001020EEB4F
:1012E000830E0BEB430B1AB1DEF800308BF80030A5
:1012F000BCF80C007F8ADCF80830DCF80410DCF85D
:101300000020013880B24B444944C9EB02024F45EA
:10131000ACF80C00CCF80830CCF80410CCF8002065
:1013200016D8A8B1236823F4904323F0700383F404
:10133000405343F4004343F080032360DAF8445001
:101340002B043FF530AF03B0BDE8F04FFFF748BBCB
:1013500008EB8606B8F80A2071680123AB40CC6818
:1013600022EA0303A8F80A30002CE7D029461D48DA
:10137000A047E3E71B4BBA681B890121A94023EA78
:10138000010318490B81002A3FF469AF294615482B
:10139000904764E708EB86062946736811485B6846
:1013A0009847CBE74A469EE7DFF838800C4BD8F8E1
:1013B00004101A6C0C6898F8000042F008026FF4F0
:1013C000006605211A645E6488F8800088F80010C1
:1013D000002C3FF4C8AE40460421A047C3E600BF3E
:1013E000005C0040480A0020DFF8EC8000226FF427
:1013F0008060022158641046A8F87C2088F87E207E
:1014000088F87F20A8F80820A8F80A2088F800109B
:1014100008F1080308F1280243F8040F9A424FF03C
:101420000001F9D1D8F80400294AC36888F864108B
:101430008B420CBF4FF41C444FF41E4480264023C3
:1014400011655164D6641464C8F88430136D214C5E
:10145000C8F80C4003F1804303F5C04304685960A9
:10146000D8F884004FF4084600F14007C8F88470AB
:101470001860DE60D8F8840048F2802600F140074A
:10148000C8F8847098601660136883F4005383F082
:10149000200343F4004343F080031360002C3FF427
:1014A0005FAE0D48A0475BE6DFF82C801A6CD8F8D9
:1014B000040098F88010046822F008021A6488F882
:1014C0000010002C3FF456AE40460521A04751E6DF
:1014D000005C0040602C0008480A0020000000006A
:1014E00038B5174DAB691C69DA681440E2B2D243D3
:1014F0001A61A30704D56B681B690BB1284698478E
:10150000600704D56B689B690BB10D4898472107AC
:1015100004D56B681B6A0BB109489847E20604D5ED
:101520006B689B6A0BB106489847E30704D56B6864
:101530009B680BB102489847BDE83840FFF750BAA6
:101540002C0A002000000000000000000000000045
:1015500038B5254DEB6869681C69DA68087D144068
:10156000E2B2D2431A6190B960072FD52B78042BD1
:1015700028D0A10712D4E40705D56B681A481B6967
:10158000984703232B70BDE83840FFF729BAA2071C
:101590000BD52B78042B04D06307ECD504232B70D8
:1015A000E9E78B68E3B1284698476307E3D52B78D2
:1015B0000D4A042BF2D15168CB68002BEED00A48BB
:1015C0009847EBE78B6843B128469847A107D2D5E7
:1015D0002B78054A042BE1D1EDE7A007ECD4CAE74C
:1015E0006207E9D4C7E700BF8010002000000000B8
:1015F000FFF7AEBF00000000000000000000000088
:101600002DE9F8434FF0804633699B0703D4BDE8CA
:10161000F843FFF7E5B900253561202787F31188E6
:101620001B4C716AE369A26AD3F808E0881A704516
:1016300004F11C0819D31968D3F80C907244414581
:10164000A262C1F80480E161DD6008BFF56085F346
:1016500011881869C84787F31188E369716AA26A1B
:10166000D3F808E0881A8645E5D9434508D0724486
:10167000521A012A98BF02224FF080430A445A634B
:10168000002383F31188BDE8F843FFF7A9B900BF31
:1016900078110020000000000000000000000000A1
:1016A0000B4B0C4A19681268090C01F00E0111422B
:1016B0000BD00948826D10B50C045C600AB1C06D96
:1016C0009047BDE81040FFF78BB9FFF789B900BF1D
:1016D000000402405804024098100020000000005E
:1016E0000B4B0C4A19681268090B01F00E011142EC
:1016F0000BD00948026D10B50C035C600AB1406D57
:101700009047BDE81040FFF76BB9FFF769B900BF1C
:101710000004024044040240981000200000000031
:101720000B4B0C4A19681268090A01F00E011142AC
:101730000BD00948826C10B50C025C600AB1C06C19
:101740009047BDE81040FFF74BB9FFF749B900BF1C
:101750000004024030040240981000200000000005
:101760000B4B0C4A19681268090901F00E0111426D
:101770000BD00948026C10B50C015C600AB1406CDA
:101780009047BDE81040FFF72BB9FFF729B900BF1C
:10179000000402401C0402409810002000000000D9
:1017A00008B5094B094A1968126801F00E01114287
:1017B00005D0074A5960936B0BB1D06B9847BDE8D1
:1017C0000840FFF70DB900BF0004024008040240C2
:1017D0009810002000000000000000000000000041
:1017E0000B4B0C4A19681268090E01F00E011142E8
:1017F0000BD00948026B10B50C065C600AB1406B57
:101800009047BDE81040FFF7EBB8FFF7E9B800BF1D
:1018100000000240800002409810002000000000FC
:101820000B4B0C4A19681268090D01F00E011142A8
:101830000BD00948826A10B50C055C600AB1C06A19
:101840009047BDE81040FFF7CBB8FFF7C9B800BF1D
:10185000000002406C0002409810002000000000D0
:101860002DE9F041614D6E6F3768F46934622207EB
:1018700053D1E30546D4A00618D4390601D5220673
:1018800065D463060ED5202383F311886A6CAB6C94
:1018900056499A4200F0898027F0400737600023BC
:1018A00083F31188BDE8F041FFF79AB8202383F352
:1018B0001188B28C6B695FFA82F8002B7DD02B6A9D
:1018C0006A6A4A4993427CD06A69484901326A612E
:1018D0005A1C2A6283F800802A6AEB699A4261D214
:1018E0004249EB6801F10C02934207D01868C860C6
:1018F0000021426018461962FFF78AFB002383F338
:101900001188BAE7202383F311884FF4007000F0A8
:10191000F7FF002383F31188ADE714F0080F0CBF25
:1019200000208020E30748BF40F02000A10748BF07
:1019300040F04000620748BF40F48070202383F3EA
:10194000118800F0DDFF002383F3118891E7202345
:1019500083F31188AB6C6A6C24499A4239D0AA6B24
:101960002249581C0132AA63A86493F800802B6CAA
:10197000984201D3CB6B8B641C492B6B01F1300275
:10198000934207D018680863002142601846196224
:10199000FFF73EFB1FFA88F8A6F82880002383F3A0
:1019A00011886EE78B690B629AE78B6B002B3FF413
:1019B00073AF102000F0A4FF6EE7042000F0A0FF3A
:1019C0007DE74A69002A3FF47FAF802000F098FF4E
:1019D00094E78A6B002AC2D0082000F091FF27F01C
:1019E000C00343F040033360D8E700BFF810002085
:1019F000F8B5264B1C6BDA6AA1695668986A1768B5
:101A000001F47C55E5613468456824F00F043460C6
:101A1000147C06680E2202FA04F47C602C6824F020
:101A20000F042C60007C824072609A68CE0544BF2F
:101A300042F001029A608D0544BF42F002029A60B2
:101A40004C051BD542F00802C8049A6002D542F04A
:101A500020029A60202282F31188D8690B4B30B1A2
:101A60006FF0010202620022DA61FFF7D1FA00236F
:101A700083F31188BDE8F840FEF7B2BFC904E6D48D
:101A8000002AE7D1BDE8F840FEF7AABF54130020B2
:101A90006C490A6BF8B5936903F0FE00D06113F04E
:101AA00010004ED113F0800421D00B78032B00F0EE
:101AB000AF808B6A49685B6889685B68FF2B98BF59
:101AC0001C04536823F0FF7341F4806123F48033D6
:101AD00088BF4FF0807043EA010388BF4FF47F0452
:101AE000184320435060BDE8F840FEF779BF5B061D
:101AF000F9D50B78032B59D08B6A5C681D68206878
:101B000020F00F002060187C0E2383406B60536828
:101B100043F480435360136823F040031360202391
:101B200083F31188C869474A20B100230362D36157
:101B3000FFF76EFA002383F31188BDE8F840FEF743
:101B40004FBFCB6A8C6A5D6866682868D3F800E08E
:101B5000276820F00F002860187C0E2303FA00F09D
:101B6000CEF804003568886825F00F053560247CC0
:101B7000A3407B60536840F0040043F480438860D6
:101B80005360136823F046031360202383F3118806
:101B9000C8690028CED06FF0010303620023CB6137
:101BA000FFF736FA002383F31188C6E7CB6A886A09
:101BB0005E68456830681F6820F00F003060187C50
:101BC0000E2383407B606B68002BA0D06B684E684F
:101BD000FF2B98BF18045368B66823F0FF7346F4D0
:101BE000806623F4803343EA060384BF4FF0807499
:101BF0004FF47F001C43044354602B6843F00103FF
:101C00002B605368042043F40053536008706AE764
:101C1000CB6A4C685B68A4685B68516821F0FF710F
:101C2000FF2B21F4803141EA04018ABF4FF080701C
:101C30001B044FF47F03084318435060BDE8F8408D
:101C4000FEF7CEBE5413002000000000000000008C
:101C50000F4B43F8201050B1012806D1052905D1BA
:101C600002221A600122DA60704770477047032928
:101C7000FCD801A252F821F0891C0008891C000838
:101C8000651C0008651C00080022DA60704700BF70
:101C9000780E00200000000000000000000000009E
:101CA00024490B6843F001030B600A68214B90073D
:101CB000FBD55A6822F003025A605A685A601946E6
:101CC0004B681C4A13F00C03FAD1116801F0F901BA
:101CD00011605360136843F4A02313601168154B1F
:101CE0008903FBD55A6A42F001025A621A46516AC8
:101CF000104B8807FBD5104A5A604FF4045130222C
:101D0000D9621A631A6842F080721A601968094A27
:101D10008901FBD5094B12211960536843F0020376
:101D200053605368034903F00C03082BF9D10B6B84
:101D30000B6370470010024000241D000020024089
:101D400008B54FF47A70FFF753F9FAE70000000086
:101D500080B5564E564C574F82B0B0464FF0904526
:101D60002B69226803F00103042A0ED8DFE802F091
:101D70005A742C12030002234FF47A703B70FFF761
:101D800037F900210846FFF763FF4FF47A70FFF739
:101D90002FF9E5E7D6ED007AFDEEE77AB8EE087A9E
:101DA000CDED017A9DF9042007EE902AF8EEE77A4E
:101DB000F4EEC77AF1EE10FA01D4002BE5D102213E
:101DC0000020FFF745FFE0E7D6ED007AFDEEE77A69
:101DD000CDED017A9DF90420002AD2DB07EE902A8E
:101DE000F8EEE77AB7EE007AF4EEC77AF1EE10FA81
:101DF000C7D4D8ED017AFDEEE77ACDED017A9DF9F1
:101E00000420002ABDDB07EE902AF8EEE77AF4EE14
:101E1000C77AF1EE10FAB4D46268052AB5D1002B66
:101E2000B3D014E0D6ED007AFDEEE77ACDED017A7D
:101E30009DF90430002B0ADB07EE903AF8EEE77AC2
:101E4000B7EE007AF4EEC77AF1EE10FA19DD01214F
:101E50000020FFF7FDFE98E7002BB0D0D6ED017A09
:101E6000FDEEE77ACDED017A9DF90430002B03DB1E
:101E700097F900209A4288DA03210020FFF7E8FE54
:101E800083E7D8ED017AFDEEE77ACDED017A9DF991
:101E90000430002BDBDB07EE903AF8EEE77AF4EE45
:101EA000C77AF1EE10FAD2DC6FE700BFF00900202C
:101EB000780E002000080020000000000000000054
:101EC00000B5334C334D83B0B7EE008A6368062B00
:101ED0001AD8DFE803F0153D32231E040400D5EDC7
:101EE000007AFDEEE77ACDED017A9DF9043007EE38
:101EF000903AF8EEE77AF4EEC87AF1EE10FA03DDE4
:101F000001210846FFF7A4FE4FF47A70FFF770F83E
:101F1000DCE703210120FFF79BFEF5E7D5ED007A12
:101F2000FDEEE77ACDED017A9DF904300633E7DA6C
:101F300004210120FFF78CFEE6E7D5ED007AFDEEE7
:101F4000E77ACDED017A9DF90430042BDCDCD7E78C
:101F5000D5ED007AFDEEE77ACDED017A9DF90430FA
:101F6000052B0FDC07EE903AF8EEE77AB8EE087A28
:101F7000F4EEC77AF1EE10FAC6D505210120FFF77D
:101F800067FEC1E702210120FFF762FEBCE700BF48
:101F9000780E0020F0090020000000000000000082
:101FA0002DE9F041324E86B0B046A72700248DF8C7
:101FB0000F70202585F3118800F0F2FB84F311885F
:101FC00085F311880723032500930DF10F0104AB5E
:101FD0000122B4603570192000F00AFD01300CBFF9
:101FE0000523022388F8003084F3118800F048FCB0
:101FF0009DF810301B07DAD59DF814609DF813107A
:102000009DF812509DF811209DF816409DF815304E
:102010009FED185ADFED185A184841EA062142EAA6
:10202000052243EA042309B212B21BB207EE903A2A
:1020300006EE101A06EE902AB8EEE77AB8EEC66AF7
:10204000F8EEE66A67EE057A26EE056A66EE856AC0
:1020500026EE256A26EEA57A67EEA57A80ED016A5E
:1020600080ED007AC0ED027A06B0BDE8F08100BFD5
:102070005413002080008038C3F51C41F009002073
:102080001B4B1C489A6A4FF0FF3100222DE9804813
:1020900099629A621C6919611A61DC68D960DA6018
:1020A000D96941F08051D961016841F480710160C2
:1020B000196A01F44071B1F5007F8BB003D04FF481
:1020C000803119621A620A4B1A6A120407D41A6A1A
:1020D00042F400721A621A6A42F400421A62064816
:1020E0000649074B074C0022026010460DE000BF76
:1020F000001002400070004050130020E02C000847
:1021000008000240981000204B68186044F8320024
:1021100001320C2A01F114014FF00003F4D1BF4D3C
:10212000BF4CDFF86CE3BF48DFF86893DFF868A3C3
:10213000BD4FBE4EDFF864C3BD4A4FF0FF3169604A
:102140006160DEF81810BB4DBB4C41F00101CEF8C8
:102150001810016841F020010160DEF81480B748D2
:10216000B74948F4FC08CEF814804FF0904E4FF673
:10217000FF78CEF80430CEF80890DFF82493CEF83C
:102180000CA0CEF81480CEF820904FF46E29CEF833
:102190002490DFF81093CEF800904FF0C00E4FF26D
:1021A000C009C7F804E0C7F80890DFF8FC92C7F848
:1021B0000C904FF08849C7F81480C7F820904AF275
:1021C00080097B62C7F800904FF070476B60AF608A
:1021D0009C4FEF60C5F814802B626B622B604FF050
:1021E00055356360A360E560C4F8148023627360B2
:1021F000636273612360944C4360F3618460934C29
:10220000C460934F934DDFF8A492FF244461924C35
:102210000362C6F828C043627B6004600F244B60F1
:102220006B608C608D4CCC608D4CEB60C1F8148081
:102230000B623463ACF114044B621046F4620B6021
:1022400001248849F96006F10C083C708649C6F8FB
:102250000C800427C6F810802C7034702F7440F85E
:10226000041B824F53614FF01008C2F83880506051
:1022700014729362D262126587F825E3DFF830E2C8
:10228000C5F818E002F17405DFF828E21564C2F819
:102290004CE0774DDFF820E276495567C2F878E0E8
:1022A000202502F10C0EC7F884517348C2F80CE0E7
:1022B0007D6002F1640502F15407C2F810E002F1FA
:1022C000300E976157621762D56101F10C07D56333
:1022D00095645564C2F830E0C2F834E0ACF16408AB
:1022E000ACF1500241F20A0E41F218050C704B603D
:1022F0008B60CF600F614B614A62C1F81C90C1F8DE
:102300002080C1F828E0CD620470436000F128020B
:1023100000F1440142F8043F91424FF00005D361BF
:10232000F8D1DFF86C91554CD9F81C30058143F099
:102330000103C9F81C30A268514945814FF0804320
:102340004A4FDFF878A1DFF87881DFF878C142F0F2
:10235000010241F61F40A2604FF0FF3E9862012249
:102360004FF080508024C3F82CE09D615D63DD60F8
:102370005D605A611A60039287F81C43C7F88001B8
:1023800038608D60C8683F4C4FF6FF03034043EA56
:102390000A0AC1F80CA0D8F80C30646043F08073CE
:1023A000C8F80C30DCF80030A56013434FF0100A79
:1023B000CCF800300DEB0A0081F81FA004F11C03DB
:1023C0004FF020084FF0000A4FF0000B246181F815
:1023D000228024606461E3612362C4F824E0CDF8C4
:1023E00010E0CDE908ABA5626567059506950795F0
:1023F00000F0CEF904A8FEF7CBFB234B2349D4F819
:1024000014C0039AC4F844C003F1100A21F0070E67
:102410000699C3F810A0C3F814A055E000000240CC
:102420000004024000000140000400485413002052
:10243000F810002000080048000C00480010004878
:102440000014004855555505C000FFFF15551501EE
:10245000801000202C0A002040005555505555553D
:1024600000540040002C0140B02C000800E100E0C6
:1024700000380140FC090020480A0020002004E048
:1024800000ED00E078110020900E00208F13002056
:102490000010024000FCC03C54111564582D000887
:1024A0000000505500A8802A150555550030014000
:1024B0000008004041110008005125020003FA0500
:1024C000F0ED00E0001000E061674FF0400A04F119
:1024D00030019D61C4F838A0C4F86CA084F84D5058
:1024E000A566656684F84E20A56424646D48CCF822
:1024F00010106161A16104F15401DFF8E4A1DFF87B
:10250000E4C1616568499D6020F00700DD601960E5
:1025100004F1580384F84C20A365E365CAF800E091
:10252000CCF8000085F3118862B6A3695F49996110
:1025300004F178005E4B4FF4B07100F0D9F85D4BB8
:10254000836188F31188346B96F800A023685A4A97
:1025500072609A218A2223F00103BAF1010F71629D
:102560003262DFF88481236062D054484CF29003D9
:10257000B16AF26A49685268DFF86C8104F1240597
:102580008D6004F128019160236020612368022599
:1025900043F0010323600024357084F311889723EE
:1025A00020278DF811308DF8107087F3118800F016
:1025B000F7F884F3118887F31188032723460094E2
:1025C00004A92A461920B460377000F011FA0130CE
:1025D00006BF052388F8003088F80050002484F3F3
:1025E000118800F04DF921460320FFF731FB344BF1
:1025F000344841224FF4E87100F07AF8324B334806
:1026000042224FF4E87100F073F8314B3148442214
:102610004FF4E87100F06CF82F4B304845224FF42E
:10262000E87100F065F842F21070FEF7E1FCFAE79D
:10263000D9F81030D8F8280043F40013C9F8103046
:10264000C9F81050D9F81C3043F40013C9F81C30F5
:1026500000F08EF9D8F82C0000F08AF9D8F80400C0
:10266000A0234FF0004287F81F33C7F880213A605B
:1026700087F82033C7F884A1C7F804A04368D8F8C6
:102680002010D8F82420006843F4404341F48051DE
:1026900042F4805243F09003C8F82010C8F8242078
:1026A00066E700BF00A0002031030008902C00085E
:1026B000E1030008D02D0008D02C00082520900050
:1026C000A11F0008A80C0020511D000820080020B0
:1026D000C11E0008D80A0020411D0008B00E0020CD
:1026E000D40A0020D00A002054130020000000006B
:1026F000F8B50446202080F3118864392144224D26
:10270000224F6869AE69E1600B6400230F664B6479
:1027100002270121A260277760616377A177256195
:10272000E263A3636363A36104612362B1686C61C4
:1027300004F1280004F124078A426762A062E06283
:102740000FD823772B461B6899688A42FBD95A68B1
:102750006260236014605C60002383F3118820466C
:10276000F8BD33772B461B689A689142FBD95A68AB
:102770007260012733603146166020465E6027771D
:10278000AC61FDF795FDE7E778110020C90200086C
:10279000014B5B6883607047001000E000000000A0
:1027A00038B5314B314A58699469002854D0A26831
:1027B00083689A4206D9037F8260062B33D0072BA9
:1027C0001DD0A3B12A4D2B4603E09968A26891421F
:1027D00002D31B68AB42F8D15A6862602360146070
:1027E0005C6025620620BDE83840FEF721BA90E81B
:1027F0000C001A6002685360FEF70AFCE2E790E8FA
:102800000A00196001684B60056A2B4602E099686E
:10281000914202D31B689D42F9D15A68426003601D
:1028200010605860CEE790E80A00196001684B60BC
:10283000056A2B4602E09968914202D31B689D42CB
:10284000F9D15A684260036010605860A868A268B5
:1028500083689A42AFD8B5E7A16B5C6103F10C02C3
:102860009961A26338BD00BF541300207811002085
:1028700060130020000000000000000000000000C5
:10288000F8B51B4F2023B86983F31188194D2E46E4
:10289000AB6956F80C4F8363B44222D0C16B4BB185
:1028A0001A68934203D09268914238BF1146DB68A0
:1028B000002BF5D12368A26B8160EB6020465E603F
:1028C000AA61A6636C61FEF7A3FB3A68BB699268D4
:1028D0009B689A4201D9FEF783F9002383F311889C
:1028E000F8BD00236B61002383F31188F8BD00BF9E
:1028F00078110020541300200000000000000000A8
:10290000F8B5174F57F8044FBC4220D005460026B3
:1029100002E02468BC421AD0E3682B43E36015B19F
:1029200022691342F5D06068A168436B027F0B43B4
:102930000A2A43630CD00B2AEBD1026A32EA030362
:10294000E7D10662FEF764FB2468BC42E4D1F8BD1F
:10295000026A1342DDD00662FEF75AFBF4E700BFBD
:10296000F81000200000000000000000000000003F
:1029700070B41B4D447C2A68012303FA04F1114012
:102980002BD1184B184E43F8341003EBC4045306F4
:10299000666004D115494B6943F001034B6112F4A1
:1029A000786F14D0416806680B6823F00F030B6042
:1029B000047C0E2303FA04F4002374600B60407C53
:1029C000012181400A4318462A6070BC70470749BC
:1029D0004B6943F002034B61E4E71846F5E700BF9B
:1029E00050130020981000205413002000100240C3
:1029F0002DE9F0413D4F00243D6BBC60864684F3D9
:102A00001188FE6A786AD6F804C0BE6AD7F82080BA
:102A10007668CCF80000CCF80C10CCF804204FF00D
:102A20008041C6F80080F360069B73604E6A2023E5
:102A300083F31188AA69120413D54A6A921BB2F56E
:102A4000FA7F4FD222461C4604E04B6A9B1BB3F52B
:102A5000FA7F47D282F3118884F31188AB69180496
:102A6000F3D47B683E6B99680C0537D5C6F804E053
:102A7000FB6A1F4C58684368726822F0FF72FF2B94
:102A800022F4803294BF4FF0000E4FF0807E42EA75
:102A9000010294BF1B044FF47F0342EA0E0213436A
:102AA00073600368A269134943F0010303602B6854
:102AB00043F040032B606B6843F400536B600320CA
:102AC0001162FA61FEF7B4F8A369186A431C03D1D6
:102AD0006B6843F480436B60BDE8F0814FEA4E00C1
:102AE0007060C5E74FF0FF30BDE8F081541300205F
:102AF000781100207013002000000000000000008A
:102B0000C36858691B8A026881689A4210B428BF5A
:102B10001A46164CC260206D00F1804000F5C0409E
:102B2000036842608AB103F1005303F540535B0030
:102B3000013A5208043303EB820200E0043331F817
:102B4000020B43F8040C9A42F8D1084A5DF8044B92
:102B5000136823F4F04323F0400383F0300343F47D
:102B6000004343F080031360704700BF005C0040E7
:102B7000C1688A6913689BB1498A013B0B44B3FB66
:102B8000F1F39381084A136823F4904323F0700310
:102B900083F4405343F4004343F0800313607047D1
:102BA00001239381EEE700BF005C004000000000BD
:102BB0000000000000000000000000000000000015
:102BC0000000000000000000000000000000000005
:102BD000DC2D0008881300208813002088130020B3
:102BE000DC2D0008000000000000000000000000D4
:102BF000DC2D0008000000000000000000000000C4
:102C0000DC2D0008000000000000000000000000B3
:102C1000DC2D000800000010000000100000001073
:102C2000DC2D000800000000000000000000000093
:102C3000DC2D000800000000000000000000000083
:102C4000DC2D000800000000000000000000000073
:102C50000100000000000000000000000000000073
:102C60000000000091050008A1040008F10300081D
:102C70004000400008080020080800200100000073
:102C80001808002000000000000000000000000004
:102C90006D61696E00164518040444080C10141880
:102CA000001C1D1E000000000000000000000000CD
:102CB000510E0008710F0008D10E0008E10F000846
:102CC000C10E0008D10F0008410E0008610F000876
:102CD000252090000000000000000000000000001F
:102CE0000000024008000240010000000000000057
:102CF00000000B00000002401C0002400200000027
:102D00000000000004010C000000024030000240FE
:102D1000040000000000000008020D000000024056
:102D20004400024008000000000000000C030E00F8
:102D300000000240580002401000000000000000A7
:102D400010040F00000002406C0002402000000050
:102D50000000000014051000000002408000024046
:102D600040000000000000001806110000040240AE
:102D70000804024080000000000000000007380046
:102D8000000402401C04024000010000000000009A
:102D90000408390000040240300402400002000030
:102DA0000000000008093A00000402404404024008
:102DB00000040000000000000C0A3B000004024078
:102DC000580402400008000000000000100B3C0006
:082DD00069646C65000000005D
:042DD80004000000F3
:04000005080001A14D
:00000001FF
