:020000040800F2
:1000000000040020A10100088110000881100008F0
:10001000811000088110000881100008811000087C
:1000200081100008811000088110000811030008E9
:10003000811000088110000881100008811000085C
:10004000811000088110000881100008811000084C
:10005000811000088110000881100008811000083C
:10006000811000088110000881100008510B000861
:10007000110B0008D10A0008910A0008510A000873
:1000800031180008F11700088110000881100008DD
:1000900081100008811000088110000881100008FC
:1000A0008110000861150008811000080116000881
:1000B0001116000881100008F1140008211B000827
:1000C000811A0008811000088110000881100008C2
:1000D00081100008711800088110000881100008C4
:1000E00081100008811000088110000881100008AC
:1000F000811000088110000881100008811000089C
:10010000811000088110000881100008811000088B
:10011000811000088110000881100008811000087B
:10012000B11700087117000831170008F116000810
:10013000B116000881100008811000088110000825
:10014000811000088110000881100008811000084B
:10015000811000088110000881100008811000083B
:10016000811000088110000881100008611100084A
:10017000811000088110000881100008811000081B
:10018000811000088110000881100008811000080B
:1001900081100008811000088110000881100008FB
:1001A00072B6344880F3098840F20000CCF20000B7
:1001B0004EF63471CEF200010860BFF34F8FBFF3EB
:1001C0006F8F40F20000C0F2F0004EF68851CEF280
:1001D00000010860BFF34F8FBFF36F8F4FF0000037
:1001E000E1EE100A4EF63C71CEF2000108600620E6
:1001F00080F31488BFF36F8F00F092FF01F068FD69
:100200004FF055301C491D4A91423CBF41F8040B48
:10021000FAE71B49174A91423CBF41F8040BFAE741
:100220001849194A194B9A423EBF51F8040B42F83B
:10023000040BF8E700201649164A91423CBF41F8EA
:10024000040BFAE700F024FF00F062FF124C134D9C
:10025000AC4203DA54F8041B8847F9E701F060FE6A
:100260000F4C104DAC4203DA54F8041B8847F9E7F1
:1002700000F046BF0008002000000020000400201D
:1002800000040020D02D00080008002048080020AD
:10029000480800203C0E0020A0010008A001000832
:1002A000A0010008A00100080000000000000000FC
:1002B0002DE9F04F2DED108AC1F80CD0C3689D4692
:1002C000BDEC108ABDE8F08F002383F31188284627
:1002D000A047002000F0ACFE00F082FC00DFFEE74B
:1002E00090F87630426880F87E300649126843F014
:1002F000800310B50446CB640AB101219047032363
:10030000237010BD005C00400000000000000000F1
:10031000064A536823F001035360EFF309836833FF
:1003200083F30988002383F31188704730EF00E0DE
:1003300010B4202383F31188094C0A4B22681968F2
:10034000C31D23F00703891A8B429DBF9B182360AE
:1003500010460020002383F311885DF8044B70479A
:10036000D80A0020D40A002000000000000000008D
:1003700010B4202383F31188037F072B0ED8DFE806
:1003800003F0270D0D2308040D08026A936801335A
:10039000936090E80C001A60026853604FF0FF34DD
:1003A000002281680D4B046202771B689A688A42BA
:1003B000FBD25A684260036000211060586081F3EC
:1003C00011885DF8044B7047036A00221A60E5E764
:1003D000002383F311885DF8044B7047300C002034
:1003E000FEE700BF00000000000000000000000069
:1003F00090F86420062A0CD838B50123934013F0F6
:10040000670F044612D113F0080503D1DB062FD481
:1004100038BD7047C3689B695B68002BF8D1036FD8
:1004200003B19847002384F8643038BD1A49426804
:100430000B68126823F4F04323F0400383F01003A9
:1004400043F4004343F080030B600B6823F49043B4
:1004500023F0700383F4805343F4004343F080039C
:100460000B600AB106219047062384F8643038BD3A
:10047000052380F86430202383F31188C368028940
:100480005B6942F0010202819D601D605D6002F0C7
:1004900017FB85F3118838BD005C004000000000A8
:1004A00038B590F864300446062B26D8DFE803F010
:1004B00004263604044C0400314942680B68126873
:1004C00023F4F04323F0400383F0100343F400438C
:1004D00043F080030B600B6823F4904323F0700318
:1004E00083F4805343F4004343F080030B600AB16C
:1004F00006219047062384F8643038BD90F87B10BD
:1005000090F87A30C26E43EA0123934206D9C36859
:100510001D8AB2FBF5F305FB1325E5B1032384F82F
:100520006430202383F31188E36862899B69002586
:1005300042F00102628120469D601D605D6002F014
:10054000F7FA85F3118838BD036F03B1984700238C
:1005500084F8643038BD202383F31188C36802898E
:100560005B6942F0010202819D601D605D6002F0E6
:10057000A7FA85F31188022384F8643038BD00BFE0
:10058000005C0040000000000000000000000000CF
:10059000B24B1B6D03F1804303F5C04303EB011124
:1005A00070B58B6803F1005303F5405304460022F5
:1005B0005B0080F8642003F1100004F1740253F82A
:1005C000041B22F8021B8342F9D163689B6853B372
:1005D0002046984738B3E36E94F8740094F87B1083
:1005E00094F87A2042EA01229A423CBFE26613461E
:1005F000020600F1AF80002B61D1052384F864303E
:10060000202383F31188E36822895B69002542F087
:100610000102228120469D601D605D6002F050FA5B
:1006200085F3118870BD94F8740010F060050246DF
:1006300022D08A4962680B68126823F4F04323F0E1
:10064000400383F0100343F4004343F080030B6046
:100650000B6823F4904323F0700383F4805343F436
:10066000004343F080030B6012B1062120469047FF
:10067000062384F8643070BD94F8751000F07F0391
:1006800043EA0123B3F5407F00F065812ED9B3F52D
:10069000C06F00F0478175D9B3F5106F00F09780F7
:1006A00040F60242934200F03681B3F5006FC0D1AC
:1006B00004F17F0201232567A266E3668EE7042327
:1006C00084F86430202383F31188E36862899B698E
:1006D000A66EE16E42F0010200256281204683E8A9
:1006E000620002F025FA85F3118870BD022B00F03C
:1006F000F98040F2EE80B3F5807F7ED0B3F5817F44
:1007000097D194F87630002B93D194F8781011F0AB
:100710000F031AD09B0003F1804303F5B84311F097
:10072000800F196840F0318101F44051B1F5405F0C
:100730000BD01A6822F4F04222F0400242F4204228
:1007400042F080021A6094F874200023A366E366E6
:10075000236723E02BB3012384F86430202383F341
:100760001188E36822895B69A66EE16E42F001029E
:1007700000252281204683E8620002F0A1F985F37A
:10078000118870BD40F202318B4245D0B3F5A06FA5
:100790007FF44FAF324BA566E566236713067FF5FE
:1007A0002CAF032384F86430202383F31188E3689B
:1007B00062899B69002542F00102628120469D60AA
:1007C0001D605D6002F0B4F985F3118870BD94F886
:1007D000763094F87F109942B7D02278042A41D01D
:1007E000002B37D0626884F87F30136804222270AF
:1007F00083B30221204698472CE094F87630012BF1
:100800007FF417AFB4F87C30A56623F00203E566E9
:100810002567A4F87C30C1E794F87630002B7FF48C
:1008200008AF94F8781011F00F038ED09B0003F1FD
:10083000804303F5B84309061A6800F1BA8022F430
:10084000904222F0700282F4805242F4004242F060
:1008500080021A6094F8742077E700BF005C0040C3
:10086000E1020008202383F311882289638902F0C2
:10087000010203F001032281638104F1280204F1E3
:100880000C0343F8045F9342FBD14023C4F8843047
:10089000012148F280008B0003F1804303F5B84347
:1008A00001311A6842F4004242F0800208291A60BD
:1008B0001860F0D1002383F31188626884F87F30D8
:1008C0001368032121700BB12046984794F87630C5
:1008D00086E7EBB9022204F17C012367A166E26698
:1008E00013467BE694F87820394912F0800F02F025
:1008F0000F0251F822203DD112F440523FF499AE3C
:10090000B2F5805F3CD1334AE3662567A26665E6AF
:10091000012B7FF48EAE304BA36600220223E366E8
:1009200022675BE694F87900616894F878304E6845
:1009300094F8762094F8771043EA00232046B047D5
:1009400000283FF476AE42680368E366A266256736
:1009500094F8740042E694F87630012B7FF469AE87
:10096000B4F87C30A56643F00203E5662567A4F879
:100970007C3013E712F030023FF45BAE102AC2D095
:10098000164AE3662567A26628E601F030013029A1
:100990003FF4DBAE1A6822F4F04222F0400282F00B
:1009A000200242F4004242F080021A6094F874205F
:1009B000CBE622F4F04222F0400282F0100242F430
:1009C000004242F080021A6094F87420BDE600BF35
:1009D000005C0040202C0008802B0008902B0008B1
:1009E000202383F31188124B5B6813F4006302D158
:1009F00083F311887047F1EE103AEFF309830D4A43
:100A00004FF08071D26843F8082C43F84C1CA3F1D6
:100A1000680282F30988084A1168926989689268B5
:100A200091428CBF054A064A43F8502C704700BFDC
:100A300000ED00E030EF00E0300C0020D9020008AB
:100A4000DC020008000000000000000000000000C0
:100A50000B4B0C4A19681268090C01F00E01114287
:100A60000BD00948026A10B50C045C600AB1406AF8
:100A70009047BDE81040FFF7B3BFFFF7B1BF00BF1D
:100A80000000024058000240500B0020000000000F
:100A90000B4B0C4A19681268090B01F00E01114248
:100AA0000BD00948826910B50C035C600AB1C069BB
:100AB0009047BDE81040FFF793BFFFF791BF00BF1D
:100AC0000000024044000240500B002000000000E3
:100AD0000B4B0C4A19681268090A01F00E01114209
:100AE0000BD00948026910B50C025C600AB140697C
:100AF0009047BDE81040FFF773BFFFF771BF00BF1D
:100B00000000024030000240500B002000000000B6
:100B10000B4B0C4A19681268090901F00E011142C9
:100B20000BD00948826810B50C015C600AB1C0683E
:100B30009047BDE81040FFF753BFFFF751BF00BF1C
:100B4000000002401C000240500B0020000000008A
:100B500008B5094B094A1968126801F00E011142E3
:100B600005D0074A596013680BB150689847BDE833
:100B70000840FFF735BF00BF0000024008000240F8
:100B8000500B0020000000000000000000000000EA
:100B90000E4B0F495A688368F0B44F6F4168C668BE
:100BA000D0E90445D31ADB1BE4180268836045F1E1
:100BB00000058B4206F1010688BF43609342C66080
:100BC000C0E9044538BF0360F0BC7047001000E086
:100BD000300C0020000000000000000000000000B9
:100BE0000D4A1068036830B4012194695A600025E9
:100BF0000177A16813609061257700E01B689A680F
:100C00008A42FBD85A6862602360214614605C60A7
:100C100030BCFFF74DBB00BF300C002000000000CF
:100C2000074B99691A6810B4087710681860012496
:100C30004360147710465DF8044B9A61FFF738BBA8
:100C4000300C002000000000000000000000000048
:100C5000F0B54B1C87B04DD0414C2546A369059398
:100C600055F81C3F01294FF0804E074698BF0221DE
:100C70003C48DEF824200490AB425BD0A06A121AF4
:100C800089189A6832D291423CBF4018CEF834009D
:100C9000914204D91B68891A9A688A42FAD35A6821
:100CA000029201AE019316605E6003919A68511A38
:100CB0004FF0FF32996062623846FFF7B1FF049B44
:100CC00083B1E369264AB3421BD0029A019B1360A9
:100CD000019B0021AB425A60049103D09968039AAA
:100CE0000A449A60A369186A07B0F0BD1B68891AA4
:100CF0009A68CDE71A4CFFF793FFA369186A07B00B
:100D0000F0BD0199D1610023A9424D60049322D026
:100D10008868039B926A03444FF080408B60416A6D
:100D20008A1A9342DED99B1A012B98BF02230B44E7
:100D30004363D7E7A262501801AE00220223019557
:100D400002950391E6612662CEF83400CEF81020B9
:100D5000CEF80C30B0E74FF08042D360C2E700BF5E
:100D6000300C0020710300080000000000000000AB
:100D700069B1084B10B4024644689B69042083E8BB
:100D80001400236053605DF8044BFFF761BF4FF020
:100D9000FF307047300C0020000000000000000011
:100DA0002DE9F04F83B004460D4616460193D0F866
:100DB0001C804FF0200989F311880027BA46A368E8
:100DC00005F1010B204603B36169A3684A1C013B8E
:100DD0006261A3602B780B7023696169994224BF1B
:100DE000E3686361B8F1000F00D0C0478AF311884F
:100DF000013E07F1010712D089F31188A3685D460F
:100E000005F1010B2046002BDED10199009320460D
:100E1000FFF7AEFF009B0028D1D083F3118838463E
:100E200003B0BDE8F08F00BF00000000000000002C
:100E30003030FFF7B5BF00BF000000000000000029
:100E400030304FF0FF33FFF7ABBF00BF00000000B2
:100E5000F8B504460F461646202383F3118803E0B5
:100E6000FFF786FF002819DBA56831462046002DD4
:100E7000F6D06269A368511C013B6161A3601770E1
:100E8000236962699A4224BFE3686361E3690BB135
:100E900020469847002080F31188F8BD85F311881B
:100EA000F8BD00BF000000000000000000000000CE
:100EB0003030FFF7CDBF00BF000000000000000091
:100EC00030304FF0FF32FFF7C3BF00BF000000001B
:100ED0002DE9F04F044683B0894693461D46D0F86D
:100EE0001C80202787F3118800260197B246B8F1AD
:100EF000000F05D02046C04702E0FFF739FFE0B9F8
:100F0000A76829462046002FF7D0A269A368511C84
:100F1000013BA161A360137809F8013B2369A26931
:100F20009A4224BFE368A3618AF311880136B3456E
:100F300005D0019B83F31188D9E787F311883046E8
:100F400003B0BDE8F08F00BF00000000000000000B
:100F50000C30FFF7BDBF00BF000000000000000024
:100F60000C304FF0FF33FFF7B3BF00BF00000000AD
:100F700070B520230E46044683F31188C3692BB154
:100F8000984703E0FFF7F4FE002815DBA56831461B
:100F90002046002DF6D0A169A36825694A1C013BB3
:100FA000AA42A360A26128BFE368087828BFA361B2
:100FB000002383F3118870BD85F3118870BD00BFD5
:100FC0000C30FFF7D5BF00BF00000000000000009C
:100FD0000C304FF0FF31FFF7CBBF00BF0000000027
:100FE00000228168084B10B4044602771B689A6897
:100FF0008A42FBD25A6862602360204614605C60BB
:101000005DF8044B704700BF300C0020000000006A
:1010100003682BB10022026018461962FFF7E0BF97
:10102000704700BF0000000000000000000000004A
:1010300038B52022034682F311880E4A9469606A0B
:10104000236204F12405854206D003686362FFF73A
:10105000C7FF606AA842F8D1637F9B0704D1636928
:1010600022691A61226953610F20BDE83840FFF7F9
:10107000D7BD00BF300C00200000000000000000C1
:10108000FEE700BF000000000000000000000000BC
:10109000F0B5134F134D144C144B154907F1700E56
:1010A00000269C4211D904391A4651F8040F42F81F
:1010B000040B9442F9D8DA43144424F003040434B2
:1010C00023449D4203D943F8046B9D42FBD87745E6
:1010D00005D039697B69BC69FD691037E1E7F0BD6E
:1010E000A02B00083C0E00203C0E00203C0E0020EF
:1010F000182E0008000000000000000000000000A2
:10110000FEE700BF0000000000000000000000003B
:10111000704700BF00000000000000000000000059
:10112000704700BF00000000000000000000000049
:10113000024A136843F0800313607047003801408F
:101140000B0700D4704772B6014B024ADA62FEE721
:10115000300C0020302C00080000000000000000CF
:101160002DE9F04FA24B5D6C6F0583B000F1448117
:101170002E0500F12181EC0408D59D4B9A6C1004DA
:1011800040F19A819A4B6FF480525A64A9050BD5AD
:10119000DFF86082D8F80430DB680BB1404698472E
:1011A000934B6FF400725A642A0440F1D480DFF844
:1011B0004482DFF83CA205F00F05AC0004F1804446
:1011C00004F5B844AE1CD4F8009008EB860319F07F
:1011D000800F5F684BD0D7F814E02268DEF80C105F
:1011E0009EE8090022F4784222F0F0020B4442F417
:1011F00000422260CEF80430C31A00F0C380388A5F
:10120000DEF80820984228BF1846CEF80C00DAF81D
:10121000503003F1804303F5C0434FEA051B0BEB4D
:10122000030C5BF8033003F1005303F540530A4409
:10123000CEF808205B00CCF8040060B1013840080B
:10124000043303EB800000E0043332F8021B43F860
:10125000041C9842F8D1236823F4F04323F04003A0
:1012600083F0300343F4004343F08003236019F418
:10127000004F6BD0236823F4784323F0F00343F04E
:10128000800319F4006F236040F08C80DAF850304E
:10129000D7F818C003F1804303F5C04303EB0513EF
:1012A000DCF808B09A68DB68019302F1005EC3F3D2
:1012B00009090EF5405EB9F1010F4FEA4E0E79D9DA
:1012C0000BF102024946704650F8043B02F8023C1A
:1012D00002391B0A012902F8013C02F10202F3D88B
:1012E000A9F102035B08019A013302F001020EEB3F
:1012F000830E0BEB430B1AB1DEF800308BF8003095
:10130000BCF80C007F8ADCF80830DCF80410DCF84C
:101310000020013880B24B444944C9EB02024F45DA
:10132000ACF80C00CCF80830CCF80410CCF8002055
:1013300016D8A8B1236823F4904323F0700383F4F4
:10134000405343F4004343F080032360DAF84450F1
:101350002B043FF530AF03B0BDE8F04FFFF740BBC3
:1013600008EB8606B8F80A2071680123AB40CC6808
:1013700022EA0303A8F80A30002CE7D029461D48CA
:10138000A047E3E71B4BBA681B890121A94023EA68
:10139000010318490B81002A3FF469AF294615481B
:1013A000904764E708EB86062946736811485B6836
:1013B0009847CBE74A469EE7DFF838800C4BD8F8D1
:1013C00004101A6C0C6898F8000042F008026FF4E0
:1013D000006605211A645E6488F8800088F80010B1
:1013E000002C3FF4C8AE40460421A047C3E600BF2E
:1013F000005C0040300A0020DFF8EC8000226FF42F
:101400008060022158641046A8F87C2088F87E206D
:1014100088F87F20A8F80820A8F80A2088F800108B
:1014200008F1080308F1280243F8040F9A424FF02C
:101430000001F9D1D8F80400294AC36888F864107B
:101440008B420CBF4FF41C444FF41E4480264023B3
:1014500011655164D6641464C8F88430136D214C4E
:10146000C8F80C4003F1804303F5C0430468596099
:10147000D8F884004FF4084600F14007C8F884709B
:101480001860DE60D8F8840048F2802600F140073A
:10149000C8F8847098601660136883F4005383F072
:1014A000200343F4004343F080031360002C3FF417
:1014B0005FAE0D48A0475BE6DFF82C801A6CD8F8C9
:1014C000040098F88010046822F008021A6488F872
:1014D0000010002C3FF456AE40460521A04751E6CF
:1014E000005C0040402C0008300A00200000000092
:1014F00038B5174DAB691C69DA681440E2B2D243C3
:101500001A61A30704D56B681B690BB1284698477D
:10151000600704D56B689B690BB10D48984721079C
:1015200004D56B681B6A0BB109489847E20604D5DD
:101530006B689B6A0BB106489847E30704D56B6854
:101540009B680BB102489847BDE83840FFF748BA9E
:10155000B80A0020000000000000000000000000A9
:1015600038B5254DEB6869681C69DA68087D144058
:10157000E2B2D2431A6190B960072FD52B78042BC1
:1015800028D0A10712D4E40705D56B681A481B6957
:10159000984703232B70BDE83840FFF721BAA20714
:1015A0000BD52B78042B04D06307ECD504232B70C8
:1015B000E9E78B68E3B1284698476307E3D52B78C2
:1015C0000D4A042BF2D15168CB68002BEED00A48AB
:1015D0009847EBE78B6843B128469847A107D2D5D7
:1015E0002B78054A042BE1D1EDE7A007ECD4CAE73C
:1015F0006207E9D4C7E700BF380B002000000000F5
:10160000FFF7AEBF00000000000000000000000077
:101610002DE9F8434FF0804633699B0703D4BDE8BA
:10162000F843FFF7DDB900253561202787F31188DE
:101630001B4C716AE369A26AD3F808E0881A704506
:1016400004F11C0819D31968D3F80C907244414571
:10165000A262C1F80480E161DD6008BFF56085F336
:1016600011881869C84787F31188E369716AA26A0B
:10167000D3F808E0881A8645E5D9434508D0724476
:10168000521A012A98BF02224FF080430A445A633B
:10169000002383F31188BDE8F843FFF7A1B900BF29
:1016A000300C0020000000000000000000000000DE
:1016B0000B4B0C4A19681268090C01F00E0111421B
:1016C0000BD00948826D10B50C045C600AB1C06D86
:1016D0009047BDE81040FFF783B9FFF781B900BF1D
:1016E0000004024058040240500B0020000000009B
:1016F0000B4B0C4A19681268090B01F00E011142DC
:101700000BD00948026D10B50C035C600AB1406D46
:101710009047BDE81040FFF763B9FFF761B900BF1C
:101720000004024044040240500B0020000000006E
:101730000B4B0C4A19681268090A01F00E0111429C
:101740000BD00948826C10B50C025C600AB1C06C09
:101750009047BDE81040FFF743B9FFF741B900BF1C
:101760000004024030040240500B00200000000042
:101770000B4B0C4A19681268090901F00E0111425D
:101780000BD00948026C10B50C015C600AB1406CCA
:101790009047BDE81040FFF723B9FFF721B900BF1C
:1017A000000402401C040240500B00200000000016
:1017B00008B5094B094A1968126801F00E01114277
:1017C00005D0074A5960936B0BB1D06B9847BDE8C1
:1017D0000840FFF705B900BF0004024008040240BA
:1017E000500B00200000000000000000000000007E
:1017F0000B4B0C4A19681268090E01F00E011142D8
:101800000BD00948026B10B50C065C600AB1406B46
:101810009047BDE81040FFF7E3B8FFF7E1B800BF1D
:101820000000024080000240500B00200000000039
:101830000B4B0C4A19681268090D01F00E01114298
:101840000BD00948826A10B50C055C600AB1C06A09
:101850009047BDE81040FFF7C3B8FFF7C1B800BF1D
:10186000000002406C000240500B0020000000000D
:101870002DE9F041614D6E6F3768F46934622207DB
:1018800053D1E30546D4A00618D4390601D5220663
:1018900065D463060ED5202383F311886A6CAB6C84
:1018A00056499A4200F0898027F0400737600023AC
:1018B00083F31188BDE8F041FFF792B8202383F34A
:1018C0001188B28C6B695FFA82F8002B7DD02B6A8D
:1018D0006A6A4A4993427CD06A69484901326A611E
:1018E0005A1C2A6283F800802A6AEB699A4261D204
:1018F0004249EB6801F10C02934207D01868C860B6
:101900000021426018461962FFF76AFB002383F347
:101910001188BAE7202383F311884FF4007001F097
:101920001FF8002383F31188ADE714F0080F0CBFF4
:1019300000208020E30748BF40F02000A10748BFF7
:1019400040F04000620748BF40F48070202383F3DA
:10195000118801F005F8002383F3118891E7202313
:1019600083F31188AB6C6A6C24499A4239D0AA6B14
:101970002249581C0132AA63A86493F800802B6C9A
:10198000984201D3CB6B8B641C492B6B01F1300265
:10199000934207D018680863002142601846196214
:1019A000FFF71EFB1FFA88F8A6F82880002383F3B0
:1019B00011886EE78B690B629AE78B6B002B3FF403
:1019C00073AF102000F0CCFF6EE7042000F0C8FFDA
:1019D0007DE74A69002A3FF47FAF802000F0C0FF16
:1019E00094E78A6B002AC2D0082000F0B9FF27F0E4
:1019F000C00343F040033360D8E700BFB00B0020C2
:101A0000F8B50B072BD4436A026A5D681F68296822
:101A1000566821F00F012960197C45680E2303FAEE
:101A200001F17960316817682D6821F00F0131608C
:101A3000127C934004467B60B5B104230370A84731
:101A40002378042B10D0202383F31188002104F184
:101A50000800FFF7DDFA002383F31188F8BD72B6A2
:101A6000034B044ADA62FEE702232370EBE700BF70
:101A7000300C0020302C00080000000000000000A6
:101A8000244AF8B5146BD36AA1695E68906A1F682E
:101A900001F47C55E5613468456824F00F04346036
:101AA0001C7C06680E2303FA04F47C602C6824F086
:101AB0000F042C60007C834073609368CE0544BFA4
:101AC00043F0010393608D0544BF43F0020393602C
:101AD0004C0516D543F00803C804936002D543F0C3
:101AE00020039360202383F311886FF001010A48DB
:101AF000FFF78EFA002383F31188BDE8F840FEF764
:101B00006FBFC904EBD4002BECD1BDE8F840FEF761
:101B100067BF00BF040B0020200B00200000000066
:101B20006948026BF8B5936903F0FE01D16113F0C7
:101B300010014AD113F0800421D00378032B00F068
:101B4000A980836A40685B6880685B68FF2B98BFE8
:101B50001C04536823F0FF7340F4806023F4803347
:101B600088BF4FF0807143EA000388BF4FF47F04C1
:101B7000194321435160BDE8F840FEF731BF5B06D1
:101B8000F9D50378032B53D0836A58681C68016821
:101B900021F00F010160197C0E238B4063605368B4
:101BA00043F480435360136823F040031360202301
:101BB00083F3118800214548FFF72AFA002383F3B5
:101BC0001188BDE8F840FEF70BBFC36A846A5D6800
:101BD00066682968D3F800E0276821F00F012960C2
:101BE000197C0E2303FA01F1CEF8041035688168E0
:101BF00025F00F053560247CA3407B60536841F0DD
:101C0000040143F4804381605360136823F046036A
:101C10001360202383F311886FF001011C30FFF75C
:101C2000F7F9002383F31188BDE8F840FEF7D8BE2A
:101C3000C36A816A5E684D6831681F6821F00F01D0
:101C40003160197C0E238B407B606B68002BA6D023
:101C50006B684668FF2B98BF19045368B66823F079
:101C6000FF7346F4806623F4803343EA060384BF9F
:101C70004FF080744FF47F011C430C4354602B6879
:101C800043F001032B605368042143F40053536075
:101C9000017070E7C36A44685B68A4685B68506859
:101CA00020F0FF70FF2B20F4803040EA04008ABF50
:101CB0004FF080711B044FF47F03014319435160BF
:101CC000BDE8F840FEF78CBE040B0020200B00207E
:101CD00024490B6843F001030B600A68214B90070D
:101CE000FBD55A6822F003025A605A685A601946B6
:101CF0004B681C4A13F00C03FAD1116801F0F9018A
:101D000011605360136843F4A02313601168154BEE
:101D10008903FBD55A6A42F001025A621A46516A97
:101D2000104B8807FBD5104A5A604FF404513022FB
:101D3000D9621A631A6842F080721A601968094AF7
:101D40008901FBD5094B12211960536843F0020346
:101D500053605368034903F00C03082BF9D10B6B54
:101D60000B6370470010024000241D000020024059
:101D70002DE98048DFF8A0A1604BDAF81820186838
:101D80005F495B685F4DDFED608A9FED608A604C64
:101D9000916189B04FF02009029003930298039952
:101DA00004AB03C389F311886A681389526801265A
:101DB00006FA03F39BB25383002787F3118889F354
:101DC00011884FF0030806AA04A9082085F80080AE
:101DD00000F056FEDAF818304E4A1A624046AB6000
:101DE000FEF71EFF87F3118889F311886B681A8943
:101DF0005B689640B6B21E8387F311889DF8193050
:101E00005B074FF400414FF400504FF4007C4FF457
:101E1000807E4FF4006B4FF48048BFD09DF81B309C
:101E20009DF81A209DF81D609DF81C70A4F81AC03A
:101E300042EA032212B247EA062307EE902A1BB2B7
:101E4000B8EEE77A07EE903A27EE287AF8EEE77ACE
:101E5000C7EE086A4FF48063A4F81AE063834FF476
:101E600080536183A4F81AB0A4F81A806383608356
:101E700067EEA87AF1EE045A87EE887AFDEEE67AEC
:101E8000B9EE046ACDED007AFDEEC77A9DF9002027
:101E9000CDED017A9DF9043082EAE27783EAE376B8
:101EA000A7EBE277A6EBE376FFB2F6B2B74212D920
:101EB00007EE902AF8EEE77A6346F4EEE57AF1EE63
:101EC00010FAF4EEC67AC8BF2083F1EE10FA7FF55F
:101ED00065AF238362E707EE903AF8EEE77A4FF4B6
:101EE0000063F4EEC67AF1EE10FAF4EEE57A48BF3C
:101EF0002183F1EE10FA7FF751AFEAE7702B00086B
:101F0000B02C0008080E002000000C4100007A44AC
:101F100000100048100E0020300C002000000000CF
:101F20001B4B1C489A6A4FF0FF3100222DE9804874
:101F300099629A621C6919611A61DC68D960DA6079
:101F4000D96941F08051D961016841F48071016023
:101F5000196A01F44071B1F5007F8BB003D04FF4E2
:101F6000803119621A620A4B1A6A120407D41A6A7B
:101F700042F400721A621A6A42F400421A62064877
:101F80000649074B074C0022026010460DE000BFD7
:101F90000010024000700040380E0020E02C0008C5
:101FA00008000240500B00204B68186044F83200D3
:101FB00001320C2A01F114014FF00003F4D1BB4EA1
:101FC000BB4CBC49BC4DDFF86493BC4FDFF8608369
:101FD000DFF860E3BA4A4FF0FF30706060608869F4
:101FE000B84CB94E40F001008861286840F02000EC
:101FF0002860D1F814C0B54DB5484CF4FC0CC1F8BC
:1020000014C04FF09041DFF830C34B60C1F8089026
:10201000C1F80CC04FF6FF79DFF820C3C1F8149067
:10202000C1F820C04FF46E2CC1F824C0DFF810C3F3
:10203000C1F800C04FF0C00C4FF2C001C7F804C097
:10204000B960A449F9604FF08841C7F8149039622B
:102050004AF280017B6239604FF070416360A16099
:102060009D49E1604FF05531C4F8149023626362DA
:1020700023607360B360F1609849C6F814903362CE
:10208000C8F804307362C8F8143033606B60C8F865
:102090001C30A9609249E960924F934CFF2169611D
:1020A00092492B62C8F828E06B627B6029600F259B
:1020B0004360636085608E4DC5608E4DE360C0F8FF
:1020C00014900362C8F83050AEF114054362114613
:1020D000C8F82C50036008F10C058748F860012609
:1020E000C8F80C50C8F8105084483E70042588F891
:1020F00000602670257441F8040B10258048536158
:102100009563804D516016729362D262126580F8B9
:1021100025C3A56102F1740515647B4DD5647B4D23
:10212000DFF8209255677A4D95672025C0F88451D5
:10213000C9F80430456002F10C0002F15405D0608A
:10214000106102F164007349956155621562D061B6
:1021500002F13005D0639064506409F10C001563FE
:102160005563C9F80C00AEF15002C9F81000DFF851
:10217000D8C189F8006041F21800AEF1640741F25D
:102180000A05C9F80830C9F81430C9F82420C9F87C
:102190002C00C9F81CC0C9F82070C9F828500E706E
:1021A0004B6001F1280201F1440042F8043F8242F1
:1021B0004FF00006D361F8D1DFF8F8A0564FDAF8F7
:1021C0001C300E8143F00103CAF81C30D7F808B068
:1021D000524A4E814FF080434BF0010BC7F808B0D4
:1021E000474DDFF868C1DFF868E14D484FF0010B5B
:1021F0004FF0FF3741F61F419962DF6280219E61F7
:102200005E63DE605E60C3F814B0C3F800B04FF0E8
:10221000805385F81C13C5F880312B609660D16817
:10222000404D4FF6FF030B4043EA0C0CC2F80CC0C4
:10223000DEF80C306D6043F08073CEF80C3003682C
:10224000AE6043EA0B0110230160D3770DEB03006E
:102250004FF0200305F11C012D6182F8223000228D
:102260000023E9612D606D612962CDE908236F6269
:102270000497AE626E6705960696079600F068FBB7
:1022800004A8FEF785FC284A6969069B6B6702F182
:10229000100C05F13003C2F810C0C2F814C04FF0A2
:1022A000400C6964C5F838C054E000BF000002402B
:1022B00000040240001002400000014000040048F9
:1022C000B00B002000080048000C00480010004837
:1022D000001400481505555555555505C000FFFF1C
:1022E00015551501380B0020B80A0020400055553F
:1022F0005055555500540040002C0140C02C00089A
:1023000000E100E000080040311100080038014001
:1023100000512502300A0020002004E000ED00E01A
:10232000001000E0300C0020E00A002000FCC03C5F
:10233000040B0020582D000854111564000050555E
:1023400000A8802A080E0020003001400003FA0592
:10235000F0ED00E0C5F86CC085F84D60AE666E66C5
:1023600085F84EB0AE642D6496619F4F0B619F4817
:102370006B61AB6105F15403DFF8A8C29C496B6542
:102380009C4B136027F0070705F1580320F0070066
:102390009660D66085F84CB0AB65EB65CCF8007004
:1023A000086086F3118862B6AB69934A9A6120236C
:1023B00083F3118891496A69C5F8B41105F178036E
:1023C00005F5BA7C02208E4985F89400C5F88C206A
:1023D000C5F8D411C5F8B861C5F880B085F8956026
:1023E000C5F8B4B0C5F8B060C5F8AC6085F896B073
:1023F000C5F89060C5F88850C5F884C005F19C0107
:10240000136105F1A0021846C5F89C10C5F8A0207C
:10241000C5F8A4206B6100F06BFA86F31188794B44
:10242000C5F89030202383F3118899F80020764B6B
:10243000C9F804305A45754E00F0B58141F20700E5
:10244000D9F82810D9F82C2021F4706122F4706298
:10245000C9F82810C9F82C205989D9F81C2041F056
:10246000040189B2002313601160506011680220DA
:1024700041F04001116089F8000083F311882022A7
:1024800082F31188D8F830A098F800B0DAF800206C
:102490005F49C8F804109A21C8F8241022F00102FC
:1024A0008A21BBF1010FC8F820105A4ECAF800204B
:1024B00000F0CF8158484CF29003D8F82810D8F893
:1024C0002C204E6852680AF1240E0AF12801C6F841
:1024D00008E09160CAF80030CAF81000DAF800305D
:1024E0004FF0020B43F00103CAF80030002688F8D1
:1024F00000B086F31188CF2220238DF80D208DF8AF
:102500000C3083F31188D9F804100A8949684FF018
:10251000010808FA02F292B24A8386F3118883F323
:1025200011884FF0030A04AA03A95846019389F8B9
:1025300000A000F0A5FAAA69384911625046C9F80E
:102540000820FEF76DFB86F31188019B83F3118849
:10255000D9F804201389526808FA03F39BB2138355
:1025600086F3118831462E4EDE46D4464FF4805B0A
:102570004FF00F0A0C2901F1010108FA01F3019350
:102580004FEA410201F007034FEA83030CFA02F21B
:102590004FF0020000FA03F94FEA5B0B4FEA8E0E90
:1025A0006FEA02020AFA03F33ED01BF0010FE1D0FA
:1025B0007768019827EA00007060B0681040B0604A
:1025C000F068072900EA0200F06000F2E580306A56
:1025D00020EA030343EA090333623368134043EA02
:1025E0000E033360C6E700BF470E002000A00020A6
:1025F000D40A002031030008902C0008E1030008F1
:10260000C9020008B82C0008702C0008080E002031
:10261000802C0008040B002025209000100E0020C4
:10262000000C0048D80A00204FF0200888F31188D9
:10263000A24BA3496A69C3F8CC11A24EC3F8AC619E
:102640000221002619770120412198775A6103F56C
:10265000B6701D61C3F8B0615E779E635E639E6174
:10266000D96303F12407136103F12802D86099604C
:1026700018465F629A62DA626B6100F039F986F39C
:10268000118888F31188904923784D686160012B87
:10269000A5608E4F00F0BB80BB6960691E603A7C0C
:1026A0005E63042A4FF000029E63DE631E6484BFF3
:1026B0009E65DE655A62CA680E68B0FBF6F002F0ED
:1026C0000F02CE6B013D0138012A9862DD625E6027
:1026D00003D0022A0CBF03220022486900F00F0039
:1026E000012803D0022803D142F0200242F0100258
:1026F000C86900F00F00012803D0022803D142F47A
:10270000007242F48072486A00F00F00012803D082
:10271000022803D142F4005242F48052096C1A623A
:1027200021F0FF0100220127852502205F611A6147
:10273000D9601D60E260207082F31188644D654E9F
:1027400090464FF020090FE0B3F5FA6F20D03268C1
:10275000DAB1012A1DD089F311884FF47A7108206B
:10276000FEF776FA88F31188296889F31188E368FF
:10277000A26943F00103E360516388F311882B6879
:10278000B3F52F7FE0D1C6F8008032332B60E2E74B
:102790003760323B2B60DEE7706A20EA030343EACE
:1027A0000903736219E732464B49306A00F010F9A9
:1027B00032464A49706A00F00BF97368726ADAF8B7
:1027C0001800B3F80CE0316AD2F804C0F269496825
:1027D00040F48050CAF818004EF480500EF4706E29
:1027E0000C32BEF5E06F8A6040F00700CCF808209C
:1027F0007FF626AEB16AF26A21F4706122F470624B
:1028000041F4A06142F4A062B162F26224E6344A6B
:10281000DFF8D8C0D369DFF8D0E043F00403D36118
:102820001069BB69C7F814C040F00407176116614E
:102830004FF0804670228EF81E23CEF8806146F657
:102840006802CEF80060274E9A616046DA615E65E4
:1028500031E7234AB06A116941F400111161136133
:10286000D16941F40011D16119463246019300F05B
:10287000AFF8019BF06A1946324600F0A9F81A4BEE
:102880007068A0214FF0004283F81F13C3F8802125
:102890001A6083F82013C3F884B1C3F804B0436806
:1028A000716A326A006843F4404342F4805241F452
:1028B000805143F0900332627162FEE560080020AF
:1028C000C9020008711D000800080020B80A002095
:1028D00044080020000B0020011A000841110008E4
:1028E000001002406868010100E100E000A24A0413
:1028F000144B70B4002204469D690262A868A16866
:1029000081420BD822771B689A689142FBD95A689A
:102910006260236014605C6070BC70472A771A465E
:10292000126891688842FBD95068686001262A6065
:10293000056055602677294620469C6170BCFDF7EE
:10294000B7BC00BF300C00200000000000000000F9
:10295000014B5B6883607047001000E000000000DE
:10296000F8B5174F57F8044FBC4220D00546002653
:1029700002E02468BC421AD0E3682B43E36015B13F
:1029800022691342F5D06068A168436B027F0B4354
:102990000A2A43630CD00B2AEBD1026A32EA030302
:1029A000E7D10662FEF71CFB2468BC42E4D1F8BD07
:1029B000026A1342DDD00662FEF712FBF4E700BFA5
:1029C000B00B00200000000000000000000000002C
:1029D000F0B5274E457C3368012404FA05F71F4201
:1029E00044D1244C04EBC50744F835107A605A06EC
:1029F00004D1214C626942F00102626113F4786FE4
:102A000004D11D4C626942F00202626142680768AB
:102A10001468856824F00F04146090F810E00E2408
:102A200004FA0EF47C602B424FF00004146016D1BF
:102A3000A9B1817C4A09920001F1604502F160422E
:102A400002F5614205F5614501F01F01012404FA18
:102A500001F1A02785F80073C2F880111160417C54
:102A600001228A40134333600020F0BD2046F0BDB0
:102A7000380E0020500B0020001002400000000023
:102A80000D4BF0B41C6A5F6A9E6ADD6A64687B68FD
:102A9000E26046F0800645F0800560602660D960FF
:102AA00058601D60226842F0010222601A6842F0FC
:102AB00001021A60F0BC7047080E00200000000000
:102AC000C36858691B8A026881689A4210B428BF9B
:102AD0001A46164CC260206D00F1804000F5C040DF
:102AE000036842608AB103F1005303F540535B0071
:102AF000013A5208043303EB820200E0043331F858
:102B0000020B43F8040C9A42F8D1084A5DF8044BD2
:102B1000136823F4F04323F0400383F0300343F4BD
:102B2000004343F080031360704700BF005C004027
:102B3000C1688A6913689BB1498A013B0B44B3FBA6
:102B4000F1F39381084A136823F4904323F0700350
:102B500083F4405343F4004343F080031360704711
:102B600001239381EEE700BF005C004000000000FD
:102B7000E7FFFFFFFFFFFFFF000000000000000075
:102B80000000000000000000000000000000000045
:102B90000000000000000000000000000000000035
:102BA000182E00083C0E00203C0E00203C0E002099
:102BB000182E0008000000000000000000000000C7
:102BC000182E0008000000000000000000000000B7
:102BD000182E0008000000000000000000000000A7
:102BE000182E000800000010000000100000001067
:102BF000182E000800000000000000000000000087
:102C0000182E000800000000000000000000000076
:102C1000182E000800000000000000000000000066
:102C200001000000000000000000000000000000A3
:102C3000444D41206661696C7572650000000000BA
:102C40000000000091050008A1040008F10300083D
:102C50004000400048080020480800200100000013
:102C600058080020000000000000000000000000E4
:102C7000000000000010004803001B0000000000DE
:102C8000252090000000000000000000000000006F
:102C90006D61696E00164518040444080C10141880
:102CA000001C1D1E000000000000000000000000CD
:102CB000546872656164310069646C6500000000ED
:102CC000410E0008610F0008C10E0008D10F000876
:102CD000B10E0008C10F0008310E0008510F0008A6
:102CE0000000024008000240010000000000000057
:102CF00000000B00000002401C0002400200000027
:102D00000000000004010C000000024030000240FE
:102D1000040000000000000008020D000000024056
:102D20004400024008000000000000000C030E00F8
:102D300000000240580002401000000000000000A7
:102D400010040F00000002406C0002402000000050
:102D50000000000014051000000002408000024046
:102D600040000000000000001806110000040240AE
:102D70000804024080000000000000000007380046
:102D8000000402401C04024000010000000000009A
:102D90000408390000040240300402400002000030
:102DA0000000000008093A00000402404404024008
:102DB00000040000000000000C0A3B000004024078
:102DC000580402400008000000000000100B3C0006
:102DD00040420F00204E00000000000001000000F3
:102DE00000000000000000000000000000000000E3
:102DF00000000000000000000000000000000000D3
:102E000000000000000000000000000000000000C2
:082E100000000000BC020000FC
:04000005080001A14D
:00000001FF
